{"abi":[{"type":"function","name":"id","inputs":[{"name":"value","type":"uint256","internalType":"uint256"}],"outputs":[{"name":"","type":"uint256","internalType":"uint256"}],"stateMutability":"pure"}],"bytecode":{"object":"0x6080604052348015600e575f80fd5b50606d80601a5f395ff3fe6080604052348015600e575f80fd5b50600436106026575f3560e01c80637d3c40c814602a575b5f80fd5b60386035366004604a565b90565b60405190815260200160405180910390f35b5f602082840312156059575f80fd5b503591905056fea164736f6c6343000819000a","linkReferences":{}},"methodIdentifiers":{"id(uint256)":"7d3c40c8"},"id":26}