{"abi":[{"type":"function","name":"attendEvent","inputs":[{"name":"_eventId","type":"uint256","internalType":"uint256"}],"outputs":[],"stateMutability":"payable"},{"type":"function","name":"createEvent","inputs":[{"name":"token","type":"address","internalType":"contract IERC20"}],"outputs":[],"stateMutability":"nonpayable"},{"type":"function","name":"eventId","inputs":[],"outputs":[{"name":"","type":"uint256","internalType":"uint256"}],"stateMutability":"view"},{"type":"function","name":"events","inputs":[{"name":"","type":"uint256","internalType":"uint256"}],"outputs":[{"name":"price","type":"uint128","internalType":"uint128"},{"name":"totalStaked","type":"uint128","internalType":"uint128"},{"name":"token","type":"address","internalType":"contract IERC20"},{"name":"slashRecipient","type":"address","internalType":"address"},{"name":"inactive","type":"bool","internalType":"bool"}],"stateMutability":"view"},{"type":"function","name":"slashUser","inputs":[{"name":"user","type":"address","internalType":"address"}],"outputs":[],"stateMutability":"nonpayable"},{"type":"function","name":"userStake","inputs":[{"name":"","type":"address","internalType":"address"},{"name":"","type":"uint256","internalType":"uint256"}],"outputs":[{"name":"","type":"uint128","internalType":"uint128"}],"stateMutability":"view"},{"type":"function","name":"withdrawStake","inputs":[{"name":"_eventId","type":"uint256","internalType":"uint256"}],"outputs":[],"stateMutability":"nonpayable"}],"bytecode":{"object":"0x6080604052348015600e575f80fd5b50610cf08061001c5f395ff3fe60806040526004361061006e575f3560e01c806325d5971f1161004c57806325d5971f146101a15780633937ea4f146101c0578063787b8d47146102295780638c0a66e4146102a6575f80fd5b8063048588db14610072578063089cdd0c146100875780630b791430146100ae575b5f80fd5b610085610080366004610bb7565b6102c5565b005b348015610092575f80fd5b5061009b5f5481565b6040519081526020015b60405180910390f35b3480156100b9575f80fd5b5061014a6100c8366004610bb7565b600160208190525f91825260409091208054918101546002909101546fffffffffffffffffffffffffffffffff808416937001000000000000000000000000000000009004169173ffffffffffffffffffffffffffffffffffffffff908116919081169074010000000000000000000000000000000000000000900460ff1685565b604080516fffffffffffffffffffffffffffffffff968716815295909416602086015273ffffffffffffffffffffffffffffffffffffffff928316938501939093521660608301521515608082015260a0016100a5565b3480156101ac575f80fd5b506100856101bb366004610bb7565b610590565b3480156101cb575f80fd5b506102086101da366004610bf2565b600260209081525f92835260408084209091529082529020546fffffffffffffffffffffffffffffffff1681565b6040516fffffffffffffffffffffffffffffffff90911681526020016100a5565b348015610234575f80fd5b50610085610243366004610c1c565b5f80548152600160208190526040909120908101805473ffffffffffffffffffffffffffffffffffffffff9093167fffffffffffffffffffffffff0000000000000000000000000000000000000000938416179055600201805490911633179055565b3480156102b1575f80fd5b506100856102c0366004610c1c565b610872565b335f9081526002602090815260408083208484529091529020546fffffffffffffffffffffffffffffffff16156102fa575f80fd5b5f81815260016020818152604092839020835160a08101855281546fffffffffffffffffffffffffffffffff808216835270010000000000000000000000000000000090910416928101929092529182015473ffffffffffffffffffffffffffffffffffffffff9081169382019390935260029091015491821660608201527401000000000000000000000000000000000000000090910460ff1615801560808301526103a5575f80fd5b606081015173ffffffffffffffffffffffffffffffffffffffff1633036103ca575f80fd5b80515f838152600160205260409020805460109061040f90849070010000000000000000000000000000000090046fffffffffffffffffffffffffffffffff16610c6b565b82546101009290920a6fffffffffffffffffffffffffffffffff8181021990931691831602179091558251335f9081526002602090815260408083208884529091529081902080547fffffffffffffffffffffffffffffffff0000000000000000000000000000000016929093169190911790915582015173ffffffffffffffffffffffffffffffffffffffff1615905080156104c15750805f01516fffffffffffffffffffffffffffffffff163414155b156104ca575f80fd5b604080820151825191517f23b872dd0000000000000000000000000000000000000000000000000000000081523360048201523060248201526fffffffffffffffffffffffffffffffff90921660448301525f9173ffffffffffffffffffffffffffffffffffffffff909116906323b872dd906064016020604051808303815f875af115801561055c573d5f803e3d5ffd5b505050506040513d601f19601f820116820180604052508101906105809190610c9b565b90508061058b575f80fd5b505050565b5f81815260016020818152604092839020835160a08101855281546fffffffffffffffffffffffffffffffff808216835270010000000000000000000000000000000090910416928101929092529182015473ffffffffffffffffffffffffffffffffffffffff9081169382019390935260029091015491821660608201527401000000000000000000000000000000000000000090910460ff16158015608083015261063b575f80fd5b335f908152600260209081526040808320858452825280832080547fffffffffffffffffffffffffffffffff000000000000000000000000000000008116909155600190925290912080546fffffffffffffffffffffffffffffffff928316928392916010916106c291859170010000000000000000000000000000000090910416610cba565b92506101000a8154816fffffffffffffffffffffffffffffffff02191690836fffffffffffffffffffffffffffffffff1602179055505f73ffffffffffffffffffffffffffffffffffffffff16826040015173ffffffffffffffffffffffffffffffffffffffff16036107b3575f826060015173ffffffffffffffffffffffffffffffffffffffff16826fffffffffffffffffffffffffffffffff166040515f6040518083038185875af1925050503d805f811461079b576040519150601f19603f3d011682016040523d82523d5f602084013e6107a0565b606091505b50509050806107ad575f80fd5b50505050565b604080830151606084015191517fa9059cbb00000000000000000000000000000000000000000000000000000000815273ffffffffffffffffffffffffffffffffffffffff92831660048201526fffffffffffffffffffffffffffffffff841660248201525f929091169063a9059cbb906044016020604051808303815f875af1158015610843573d5f803e3d5ffd5b505050506040513d601f19601f820116820180604052508101906108679190610c9b565b9050806107ad575f80fd5b5f805480825260016020818152604093849020845160a08101865281546fffffffffffffffffffffffffffffffff808216835270010000000000000000000000000000000090910416928101929092529182015473ffffffffffffffffffffffffffffffffffffffff90811694820194909452600290910154928316606082018190527401000000000000000000000000000000000000000090930460ff161515608082015290913314610924575f80fd5b73ffffffffffffffffffffffffffffffffffffffff83165f908152600260209081526040808320858452825280832080547fffffffffffffffffffffffffffffffff000000000000000000000000000000008116909155600190925290912080546fffffffffffffffffffffffffffffffff928316928392916010916109c191859170010000000000000000000000000000000090910416610cba565b92506101000a8154816fffffffffffffffffffffffffffffffff02191690836fffffffffffffffffffffffffffffffff1602179055508160800151610a4e575f83815260016020526040902060020180547fffffffffffffffffffffff00ffffffffffffffffffffffffffffffffffffffff16740100000000000000000000000000000000000000001790555b604082015173ffffffffffffffffffffffffffffffffffffffff16610af1575f826060015173ffffffffffffffffffffffffffffffffffffffff16826fffffffffffffffffffffffffffffffff166040515f6040518083038185875af1925050503d805f8114610ad9576040519150601f19603f3d011682016040523d82523d5f602084013e610ade565b606091505b5050905080610aeb575f80fd5b506107ad565b604080830151606084015191517fa9059cbb00000000000000000000000000000000000000000000000000000000815273ffffffffffffffffffffffffffffffffffffffff92831660048201526fffffffffffffffffffffffffffffffff841660248201525f929091169063a9059cbb906044016020604051808303815f875af1158015610b81573d5f803e3d5ffd5b505050506040513d601f19601f82011682018060405250810190610ba59190610c9b565b905080610bb0575f80fd5b5050505050565b5f60208284031215610bc7575f80fd5b5035919050565b73ffffffffffffffffffffffffffffffffffffffff81168114610bef575f80fd5b50565b5f8060408385031215610c03575f80fd5b8235610c0e81610bce565b946020939093013593505050565b5f60208284031215610c2c575f80fd5b8135610c3781610bce565b9392505050565b7f4e487b71000000000000000000000000000000000000000000000000000000005f52601160045260245ffd5b6fffffffffffffffffffffffffffffffff818116838216019080821115610c9457610c94610c3e565b5092915050565b5f60208284031215610cab575f80fd5b81518015158114610c37575f80fd5b6fffffffffffffffffffffffffffffffff828116828216039080821115610c9457610c94610c3e56fea164736f6c6343000819000a","linkReferences":{}},"methodIdentifiers":{"attendEvent(uint256)":"048588db","createEvent(address)":"787b8d47","eventId()":"089cdd0c","events(uint256)":"0b791430","slashUser(address)":"8c0a66e4","userStake(address,uint256)":"3937ea4f","withdrawStake(uint256)":"25d5971f"},"id":3}